{
  "contractName": "EIP20Factory",
  "abi": [
    {
      "constant": true,
      "inputs": [
        {
          "name": "",
          "type": "address"
        },
        {
          "name": "",
          "type": "uint256"
        }
      ],
      "name": "created",
      "outputs": [
        {
          "name": "",
          "type": "address"
        }
      ],
      "payable": false,
      "stateMutability": "view",
      "type": "function"
    },
    {
      "constant": true,
      "inputs": [
        {
          "name": "",
          "type": "address"
        }
      ],
      "name": "isEIP20",
      "outputs": [
        {
          "name": "",
          "type": "bool"
        }
      ],
      "payable": false,
      "stateMutability": "view",
      "type": "function"
    },
    {
      "constant": true,
      "inputs": [],
      "name": "EIP20ByteCode",
      "outputs": [
        {
          "name": "",
          "type": "bytes"
        }
      ],
      "payable": false,
      "stateMutability": "view",
      "type": "function"
    },
    {
      "inputs": [
        {
          "name": "_tokenName",
          "type": "string"
        },
        {
          "name": "_tokenSymbol",
          "type": "string"
        },
        {
          "name": "_initialAmount",
          "type": "uint256"
        },
        {
          "name": "_decimalUnits",
          "type": "uint8"
        }
      ],
      "payable": false,
      "stateMutability": "nonpayable",
      "type": "constructor"
    },
    {
      "constant": true,
      "inputs": [
        {
          "name": "_tokenContract",
          "type": "address"
        }
      ],
      "name": "verifyEIP20",
      "outputs": [
        {
          "name": "",
          "type": "bool"
        }
      ],
      "payable": false,
      "stateMutability": "view",
      "type": "function"
    },
    {
      "constant": false,
      "inputs": [
        {
          "name": "_name",
          "type": "string"
        },
        {
          "name": "_symbol",
          "type": "string"
        },
        {
          "name": "_initialAmount",
          "type": "uint256"
        },
        {
          "name": "_decimals",
          "type": "uint8"
        }
      ],
      "name": "createEIP20",
      "outputs": [
        {
          "name": "",
          "type": "address"
        }
      ],
      "payable": false,
      "stateMutability": "nonpayable",
      "type": "function"
    }
  ],
  "bytecode": "0x608060405234801561001057600080fd5b50604051611b4c380380611b4c833981016040908152815160208301519183015160608401519184019392909201919060006100578585858564010000000061008a810204565b905061006b8164010000000061027b810204565b805161007f916002916020909101906102a2565b50505050505061034d565b60008085858585610099610320565b6040810183905260ff8216606082015260808082528551908201528451819060208083019160a084019189019080838360005b838110156100e45781810151838201526020016100cc565b50505050905090810190601f1680156101115780820380516001836020036101000a031916815260200191505b50838103825286518152865160209182019188019080838360005b8381101561014457818101518382015260200161012c565b50505050905090810190601f1680156101715780820380516001836020036101000a031916815260200191505b509650505050505050604051809103906000f080158015610196573d6000803e3d6000fd5b5033600081815260208181526040808320805460018082018355918552838520018054600160a060020a031916600160a060020a038816908117909155808552818452828520805460ff191690921790915581517fa9059cbb0000000000000000000000000000000000000000000000000000000081526004810195909552602485018a905290519495509363a9059cbb93604480820194918390030190829087803b15801561024557600080fd5b505af1158015610259573d6000803e3d6000fd5b505050506040513d602081101561026f57600080fd5b50909695505050505050565b60408051603f833b908101601f191682019092528181529080600060208401853c50919050565b828054600181600116156101000203166002900490600052602060002090601f016020900481019282601f106102e357805160ff1916838001178555610310565b82800160010185558215610310579182015b828111156103105782518255916020019190600101906102f5565b5061031c929150610330565b5090565b604051610855806112f783390190565b61034a91905b8082111561031c5760008155600101610336565b90565b610f9b8061035c6000396000f30060806040526004361061006c5763ffffffff7c01000000000000000000000000000000000000000000000000000000006000350416635f8dead38114610071578063706438d1146100cb5780637cf628381461010d578063cd4d689514610197578063dc270113146101c5575b600080fd5b34801561007d57600080fd5b506100a273ffffffffffffffffffffffffffffffffffffffff60043516602435610267565b6040805173ffffffffffffffffffffffffffffffffffffffff9092168252519081900360200190f35b3480156100d757600080fd5b506100f973ffffffffffffffffffffffffffffffffffffffff600435166102ab565b604080519115158252519081900360200190f35b34801561011957600080fd5b506101226102c0565b6040805160208082528351818301528351919283929083019185019080838360005b8381101561015c578181015183820152602001610144565b50505050905090810190601f1680156101895780820380516001836020036101000a031916815260200191505b509250505060405180910390f35b3480156101a357600080fd5b506100f973ffffffffffffffffffffffffffffffffffffffff6004351661034b565b3480156101d157600080fd5b506040805160206004803580820135601f81018490048402850184019095528484526100a294369492936024939284019190819084018382808284375050604080516020601f89358b018035918201839004830284018301909452808352979a999881019791965091820194509250829150840183828082843750949750508435955050505060209091013560ff169050610491565b60006020528160005260406000208181548110151561028257fe5b60009182526020909120015473ffffffffffffffffffffffffffffffffffffffff169150829050565b60016020526000908152604090205460ff1681565b6002805460408051602060018416156101000260001901909316849004601f810184900484028201840190925281815292918301828280156103435780601f1061031857610100808354040283529160200191610343565b820191906000526020600020905b81548152906001019060200180831161032657829003601f168201915b505050505081565b60006060600061035a846106c5565b60028054825192945060001961010060018316150201160414610380576000925061048a565b5060005b815181101561048557600280548290600019610100600183161502011682900481106103ac57fe5b8154600116156103cb5790600052602060002090602091828204019190065b9054901a7f0100000000000000000000000000000000000000000000000000000000000000027effffffffffffffffffffffffffffffffffffffffffffffffffffffffffffff1916828281518110151561042157fe5b6020910101517f010000000000000000000000000000000000000000000000000000000000000090819004027fff00000000000000000000000000000000000000000000000000000000000000161461047d576000925061048a565b600101610384565b600192505b5050919050565b600080858585856104a061070a565b6040810183905260ff8216606082015260808082528551908201528451819060208083019160a084019189019080838360005b838110156104eb5781810151838201526020016104d3565b50505050905090810190601f1680156105185780820380516001836020036101000a031916815260200191505b50838103825286518152865160209182019188019080838360005b8381101561054b578181015183820152602001610533565b50505050905090810190601f1680156105785780820380516001836020036101000a031916815260200191505b509650505050505050604051809103906000f08015801561059d573d6000803e3d6000fd5b50336000818152602081815260408083208054600180820183559185528385200180547fffffffffffffffffffffffff00000000000000000000000000000000000000001673ffffffffffffffffffffffffffffffffffffffff881690811790915580855281845282852080547fffffffffffffffffffffffffffffffffffffffffffffffffffffffffffffff001690921790915581517fa9059cbb0000000000000000000000000000000000000000000000000000000081526004810195909552602485018a905290519495509363a9059cbb93604480820194918390030190829087803b15801561068f57600080fd5b505af11580156106a3573d6000803e3d6000fd5b505050506040513d60208110156106b957600080fd5b50909695505050505050565b60408051603f833b9081017fffffffffffffffffffffffffffffffffffffffffffffffffffffffffffffffe01682019092528181529080600060208401853c50919050565b6040516108558061071b833901905600608060405234801561001057600080fd5b50604051610855380380610855833981016040908152815160208084015183850151606086015133600090815260018552958620829055948190559285018051909591909101939161006791600391870190610094565b506004805460ff191660ff8316179055825161008a906005906020860190610094565b505050505061012f565b828054600181600116156101000203166002900490600052602060002090601f016020900481019282601f106100d557805160ff1916838001178555610102565b82800160010185558215610102579182015b828111156101025782518255916020019190600101906100e7565b5061010e929150610112565b5090565b61012c91905b8082111561010e5760008155600101610118565b90565b6107178061013e6000396000f3006080604052600436106100ae5763ffffffff7c010000000000000000000000000000000000000000000000000000000060003504166306fdde0381146100b3578063095ea7b31461013d57806318160ddd1461018257806323b872dd146101a957806327e235e3146101e0578063313ce5671461020e5780635c6581651461023957806370a082311461026d57806395d89b411461029b578063a9059cbb146102b0578063dd62ed3e146102e1575b600080fd5b3480156100bf57600080fd5b506100c8610315565b6040805160208082528351818301528351919283929083019185019080838360005b838110156101025781810151838201526020016100ea565b50505050905090810190601f16801561012f5780820380516001836020036101000a031916815260200191505b509250505060405180910390f35b34801561014957600080fd5b5061016e73ffffffffffffffffffffffffffffffffffffffff600435166024356103a3565b604080519115158252519081900360200190f35b34801561018e57600080fd5b50610197610416565b60408051918252519081900360200190f35b3480156101b557600080fd5b5061016e73ffffffffffffffffffffffffffffffffffffffff6004358116906024351660443561041c565b3480156101ec57600080fd5b5061019773ffffffffffffffffffffffffffffffffffffffff60043516610561565b34801561021a57600080fd5b50610223610573565b6040805160ff9092168252519081900360200190f35b34801561024557600080fd5b5061019773ffffffffffffffffffffffffffffffffffffffff6004358116906024351661057c565b34801561027957600080fd5b5061019773ffffffffffffffffffffffffffffffffffffffff60043516610599565b3480156102a757600080fd5b506100c86105c1565b3480156102bc57600080fd5b5061016e73ffffffffffffffffffffffffffffffffffffffff6004351660243561061c565b3480156102ed57600080fd5b5061019773ffffffffffffffffffffffffffffffffffffffff600435811690602435166106b3565b6003805460408051602060026001851615610100026000190190941693909304601f8101849004840282018401909252818152929183018282801561039b5780601f106103705761010080835404028352916020019161039b565b820191906000526020600020905b81548152906001019060200180831161037e57829003601f168201915b505050505081565b33600081815260026020908152604080832073ffffffffffffffffffffffffffffffffffffffff8716808552908352818420869055815186815291519394909390927f8c5be1e5ebec7d5bd14f71427d1e84f3dd0314c0f7b2291e5b200ac8c7c3b925928290030190a350600192915050565b60005481565b73ffffffffffffffffffffffffffffffffffffffff831660008181526002602090815260408083203384528252808320549383526001909152812054909190831180159061046a5750828110155b151561047557600080fd5b73ffffffffffffffffffffffffffffffffffffffff808516600090815260016020526040808220805487019055918716815220805484900390556000198110156104f15773ffffffffffffffffffffffffffffffffffffffff851660009081526002602090815260408083203384529091529020805484900390555b8373ffffffffffffffffffffffffffffffffffffffff168573ffffffffffffffffffffffffffffffffffffffff167fddf252ad1be2c89b69c2b068fc378daa952ba7f163c4a11628f55a4df523b3ef856040518082815260200191505060405180910390a3506001949350505050565b60016020526000908152604090205481565b60045460ff1681565b600260209081526000928352604080842090915290825290205481565b73ffffffffffffffffffffffffffffffffffffffff1660009081526001602052604090205490565b6005805460408051602060026001851615610100026000190190941693909304601f8101849004840282018401909252818152929183018282801561039b5780601f106103705761010080835404028352916020019161039b565b3360009081526001602052604081205482111561063857600080fd5b3360008181526001602090815260408083208054879003905573ffffffffffffffffffffffffffffffffffffffff871680845292819020805487019055805186815290519293927fddf252ad1be2c89b69c2b068fc378daa952ba7f163c4a11628f55a4df523b3ef929181900390910190a350600192915050565b73ffffffffffffffffffffffffffffffffffffffff9182166000908152600260209081526040808320939094168252919091522054905600a165627a7a72305820e0edc4939bf63b98bc2cf08ae750c71a9ad79e217222401ae99ed3bbe853e7240029a165627a7a72305820e1b5fcb90a435886795368540899dbfaaa244e31a91858249bd8de577b6cec610029608060405234801561001057600080fd5b50604051610855380380610855833981016040908152815160208084015183850151606086015133600090815260018552958620829055948190559285018051909591909101939161006791600391870190610094565b506004805460ff191660ff8316179055825161008a906005906020860190610094565b505050505061012f565b828054600181600116156101000203166002900490600052602060002090601f016020900481019282601f106100d557805160ff1916838001178555610102565b82800160010185558215610102579182015b828111156101025782518255916020019190600101906100e7565b5061010e929150610112565b5090565b61012c91905b8082111561010e5760008155600101610118565b90565b6107178061013e6000396000f3006080604052600436106100ae5763ffffffff7c010000000000000000000000000000000000000000000000000000000060003504166306fdde0381146100b3578063095ea7b31461013d57806318160ddd1461018257806323b872dd146101a957806327e235e3146101e0578063313ce5671461020e5780635c6581651461023957806370a082311461026d57806395d89b411461029b578063a9059cbb146102b0578063dd62ed3e146102e1575b600080fd5b3480156100bf57600080fd5b506100c8610315565b6040805160208082528351818301528351919283929083019185019080838360005b838110156101025781810151838201526020016100ea565b50505050905090810190601f16801561012f5780820380516001836020036101000a031916815260200191505b509250505060405180910390f35b34801561014957600080fd5b5061016e73ffffffffffffffffffffffffffffffffffffffff600435166024356103a3565b604080519115158252519081900360200190f35b34801561018e57600080fd5b50610197610416565b60408051918252519081900360200190f35b3480156101b557600080fd5b5061016e73ffffffffffffffffffffffffffffffffffffffff6004358116906024351660443561041c565b3480156101ec57600080fd5b5061019773ffffffffffffffffffffffffffffffffffffffff60043516610561565b34801561021a57600080fd5b50610223610573565b6040805160ff9092168252519081900360200190f35b34801561024557600080fd5b5061019773ffffffffffffffffffffffffffffffffffffffff6004358116906024351661057c565b34801561027957600080fd5b5061019773ffffffffffffffffffffffffffffffffffffffff60043516610599565b3480156102a757600080fd5b506100c86105c1565b3480156102bc57600080fd5b5061016e73ffffffffffffffffffffffffffffffffffffffff6004351660243561061c565b3480156102ed57600080fd5b5061019773ffffffffffffffffffffffffffffffffffffffff600435811690602435166106b3565b6003805460408051602060026001851615610100026000190190941693909304601f8101849004840282018401909252818152929183018282801561039b5780601f106103705761010080835404028352916020019161039b565b820191906000526020600020905b81548152906001019060200180831161037e57829003601f168201915b505050505081565b33600081815260026020908152604080832073ffffffffffffffffffffffffffffffffffffffff8716808552908352818420869055815186815291519394909390927f8c5be1e5ebec7d5bd14f71427d1e84f3dd0314c0f7b2291e5b200ac8c7c3b925928290030190a350600192915050565b60005481565b73ffffffffffffffffffffffffffffffffffffffff831660008181526002602090815260408083203384528252808320549383526001909152812054909190831180159061046a5750828110155b151561047557600080fd5b73ffffffffffffffffffffffffffffffffffffffff808516600090815260016020526040808220805487019055918716815220805484900390556000198110156104f15773ffffffffffffffffffffffffffffffffffffffff851660009081526002602090815260408083203384529091529020805484900390555b8373ffffffffffffffffffffffffffffffffffffffff168573ffffffffffffffffffffffffffffffffffffffff167fddf252ad1be2c89b69c2b068fc378daa952ba7f163c4a11628f55a4df523b3ef856040518082815260200191505060405180910390a3506001949350505050565b60016020526000908152604090205481565b60045460ff1681565b600260209081526000928352604080842090915290825290205481565b73ffffffffffffffffffffffffffffffffffffffff1660009081526001602052604090205490565b6005805460408051602060026001851615610100026000190190941693909304601f8101849004840282018401909252818152929183018282801561039b5780601f106103705761010080835404028352916020019161039b565b3360009081526001602052604081205482111561063857600080fd5b3360008181526001602090815260408083208054879003905573ffffffffffffffffffffffffffffffffffffffff871680845292819020805487019055805186815290519293927fddf252ad1be2c89b69c2b068fc378daa952ba7f163c4a11628f55a4df523b3ef929181900390910190a350600192915050565b73ffffffffffffffffffffffffffffffffffffffff9182166000908152600260209081526040808320939094168252919091522054905600a165627a7a72305820e0edc4939bf63b98bc2cf08ae750c71a9ad79e217222401ae99ed3bbe853e7240029",
  "source": "import \"./RaiToken.sol\";\n\npragma solidity ^0.4.21;\n\n\ncontract EIP20Factory {\n\n    mapping(address => address[]) public created;\n    mapping(address => bool) public isEIP20; //verify without having to do a bytecode check.\n    bytes public EIP20ByteCode; // solhint-disable-line var-name-mixedcase\n\n    constructor(\n        string _tokenName,\n        string _tokenSymbol,\n        uint256 _initialAmount,\n        uint8 _decimalUnits\n    ) public {\n        //upon creation of the factory, deploy a EIP20 (parameters are meaningless) and store the bytecode provably.\n        address verifiedToken = createEIP20(_tokenName, _tokenSymbol, _initialAmount, _decimalUnits);\n        EIP20ByteCode = codeAt(verifiedToken);\n    }\n\n    //verifies if a contract that has been deployed is a Human Standard Token.\n    //NOTE: This is a very expensive function, and should only be used in an eth_call. ~800k gas\n    function verifyEIP20(address _tokenContract) public view returns (bool) {\n        bytes memory fetchedTokenByteCode = codeAt(_tokenContract);\n\n        if (fetchedTokenByteCode.length != EIP20ByteCode.length) {\n            return false; //clear mismatch\n        }\n\n      //starting iterating through it if lengths match\n        for (uint i = 0; i < fetchedTokenByteCode.length; i++) {\n            if (fetchedTokenByteCode[i] != EIP20ByteCode[i]) {\n                return false;\n            }\n        }\n        return true;\n    }\n\n    function createEIP20(string _name,string _symbol, uint256 _initialAmount, uint8 _decimals)\n        public\n    returns (address) {\n\n        RaiToken newToken = (new RaiToken(_name, _symbol,_initialAmount,  _decimals));\n        created[msg.sender].push(address(newToken));\n        isEIP20[address(newToken)] = true;\n        //the factory will own the created tokens. You must transfer them.\n        newToken.transfer(msg.sender, _initialAmount);\n        return address(newToken);\n    }\n\n    //for now, keeping this internal. Ideally there should also be a live version of this that\n    // any contract can use, lib-style.\n    //retrieves the bytecode at a specific address.\n    function codeAt(address _addr) internal view returns (bytes outputCode) {\n        assembly { // solhint-disable-line no-inline-assembly\n            // retrieve the size of the code, this needs assembly\n            let size := extcodesize(_addr)\n            // allocate output byte array - this could also be done without assembly\n            // by using outputCode = new bytes(size)\n            outputCode := mload(0x40)\n            // new \"memory end\" including padding\n            mstore(0x40, add(outputCode, and(add(add(size, 0x20), 0x1f), not(0x1f))))\n            // store length in memory\n            mstore(outputCode, size)\n            // actually retrieve the code, this needs assembly\n            extcodecopy(_addr, add(outputCode, 0x20), 0, size)\n        }\n    }\n}",
  "sourcePath": "/Users/user/dev/blockchain/ether/rai/contracts/Token/EIP20Factory.sol",
  "compiler": {
    "name": "solc",
    "version": "0.4.24+commit.e67f0147.Emscripten.clang"
  },
  "schemaVersion": "2.0.1",
  "updatedAt": "2018-07-25T04:48:04.132Z"
}